:100000000C945D000C9485000C9485000C94850084
:100010000C9485000C9485000C9485000C9485004C
:100020000C9485000C9485000C9485000C9485003C
:100030000C9485000C9485000C9485000C9485002C
:100040000C94C6020C9485000C94FD010C942F02B4
:100050000C9485000C9485000C9485000C9485000C
:100060000C9485000C94850000000008000201003B
:100070000003040700000000000000000102040863
:100080001020408001020408102001020408102002
:10009000040404040404040402020202020203032E
:1000A0000303030300000000250028002B000000CC
:1000B0000000240027002A005F0211241FBECFEF9A
:1000C000D8E0DEBFCDBF11E0A0E0B1E0E6EDF8E0A2
:1000D00002C005900D92A231B107D9F721E0A2E14B
:1000E000B1E001C01D92A83BB207E1F710E0CDE5F9
:1000F000D0E004C02197FE010E946304CC35D107F3
:10010000C9F70E94B7020C9469040C94000061E0E6
:100110008DE00E94D50326E040E855E260E070E003
:1001200082E191E00C94980161E08DE00E9411045D
:1001300064EF71E080E090E00E94350360E08DE0C4
:100140000E94110464E670E080E090E00E943503B4
:1001500061E08DE00E94110464E670E080E090E0D0
:100160000E94350360E08DE00E94110468EC70E0AD
:1001700080E090E00C943503FC01918D228D892F55
:1001800090E0805C9F4F821B91098F73992708959F
:10019000FC01918D828D981731F0828DE80FF11D51
:1001A000858D90E008958FEF9FEF0895FC01918D6C
:1001B000828D981761F0828DDF01A80FB11D5D96C9
:1001C0008C91928D9F5F9F73928F90E008958FEF37
:1001D0009FEF0895FC01538D448D252F30E0842F2F
:1001E00090E0821B930B541710F0CF96089501975F
:1001F000089585E592E0892B49F080E090E0892B15
:1002000029F00E94550281110C9400000895FC0110
:10021000848DDF01A80FB11DA35ABF4F2C91848D8F
:1002200090E001968F739927848FA689B7892C93C4
:10023000A089B1898C91837080648C93938D848D17
:10024000981306C00288F389E02D80818F7D80831A
:100250000895EF92FF920F931F93CF93DF93EC01DA
:1002600081E0888F9B8D8C8D981305C0E889F98972
:10027000808185FD26C0F62E0B8D10E00F5F1F4F8D
:100280000F731127E02E8C8DE8120CC00FB607FCFF
:10029000FACFE889F989808185FFF5CFCE010E94E8
:1002A0000701F1CF8B8DFE01E80FF11DE35AFF4FDF
:1002B000F0829FB7F8940B8FEA89FB898081806276
:1002C0000AC09FB7F894EE89FF896083E889F989AD
:1002D00080818370806480839FBF81E090E0DF91A4
:1002E000CF911F910F91FF90EF900895CF93DF93DF
:1002F000EC01888D8823C9F0EA89FB89808185FD1E
:1003000005C0A889B9898C9186FD0FC00FB607FC7E
:10031000F5CF808185FFF2CFA889B9898C9185FFBF
:10032000EDCFCE010E940701E7CFDF91CF91089575
:10033000CF92DF92EF92FF921F93CF93DF93EC0166
:100340006A017B01122FE889F98982E080834115D7
:10035000514E61057105B1F060E079E08DE390E008
:10036000A70196010E944104DA01C9010197A10980
:10037000B109B695A795979587959C01211580E1C0
:100380003807A8F0E889F989108260E874E88EE1FE
:1003900090E0A70196010E944104DA01C90101978A
:1003A000A109B109B695A795979587959C01EC850C
:1003B000FD853083EE85FF852083188EEC89FD89CD
:1003C0001083EA89FB89808180618083EA89FB89C7
:1003D000808188608083EA89FB898081806880834E
:1003E000EA89FB8980818F7D8083DF91CF911F9186
:1003F000FF90EF90DF90CF9008951F920F920FB66D
:100400000F9211242F938F939F93EF93FF93E0917B
:100410002201F09123018081E0912801F0912901CE
:1004200082FD12C0908180912B018F5F8F7320918C
:100430002C01821751F0E0912B01F0E0EE5EFE4FAF
:10044000958F80932B0101C08081FF91EF919F9147
:100450008F912F910F900FBE0F901F9018951F92A4
:100460000F920FB60F9211242F933F934F935F93E8
:100470006F937F938F939F93AF93BF93EF93FF936C
:1004800082E191E00E940701FF91EF91BF91AF914E
:100490009F918F917F916F915F914F913F912F919C
:1004A0000F900FBE0F901F90189582E191E00E946F
:1004B000BC0021E0892B09F420E0822F0895E2E1BD
:1004C000F1E01382128288EE93E0A0E0B0E0848332
:1004D0009583A683B78384E091E09183808385EC44
:1004E00090E09587848784EC90E09787868780ECFE
:1004F00090E0918B808B81EC90E0938B828B82ECEF
:1005000090E0958B848B86EC90E0978B868B118E98
:10051000128E138E148E0895CF92DF92EF92FF9277
:100520000F931F93CF93DF936C017A018B01C0E08F
:10053000D0E0CE15DF0581F0D8016D918D01D60197
:10054000ED91FC910190F081E02DC6010995892B78
:1005500011F02196EECF7E01C701DF91CF911F915F
:100560000F91FF90EF90DF90CF90089508950E9433
:1005700071030E94B6020E948700C9EFD0E00E947A
:1005800094002097E1F30E94F900F9CF1F920F9297
:100590000FB60F9211242F933F938F939F93AF9396
:1005A000BF938091B0019091B101A091B201B0913F
:1005B000B3013091AF0123E0230F2D3720F40196D2
:1005C000A11DB11D05C026E8230F0296A11DB11D76
:1005D0002093AF018093B0019093B101A093B20139
:1005E000B093B3018091B4019091B501A091B6018F
:1005F000B091B7010196A11DB11D8093B4019093F4
:10060000B501A093B601B093B701BF91AF919F918F
:100610008F913F912F910F900FBE0F901F901895C3
:100620003FB7F8948091B4019091B501A091B601C3
:10063000B091B70126B5A89B05C02F3F19F00196D0
:10064000A11DB11D3FBFBA2FA92F982F8827820F58
:10065000911DA11DB11DBC01CD0142E0660F771FA8
:10066000881F991F4A95D1F708958F929F92AF9254
:10067000BF92CF92DF92EF92FF926B017C010E94BA
:1006800010034B015C01C114D104E104F10401F138
:100690000E9440040E941003DC01CB0188199909D3
:1006A000AA09BB09883E9340A105B10560F321E08A
:1006B000C21AD108E108F10888EE880E83E0981E7E
:1006C000A11CB11CC114D104E104F10419F7DBCF62
:1006D000FF90EF90DF90CF90BF90AF909F908F9062
:1006E0000895789484B5826084BD84B5816084BDAA
:1006F00085B5826085BD85B5816085BDEEE6F0E09B
:10070000808181608083E1E8F0E0108280818260F6
:100710008083808181608083E0E8F0E08081816077
:100720008083E1EBF0E0808184608083E0EBF0E0A7
:10073000808181608083EAE7F0E08081846080834B
:1007400080818260808380818160808380818068F5
:1007500080831092C1000895833081F028F48130A5
:1007600099F08230A1F008958730A9F08830B9F06F
:100770008430D1F4809180008F7D03C0809180000F
:100780008F7780938000089584B58F7702C084B5F9
:100790008F7D84BD08958091B0008F7703C08091D4
:1007A000B0008F7D8093B0000895CF93DF9390E0E9
:1007B000FC01E458FF4F2491FC01E057FF4F849166
:1007C000882361F190E0880F991FFC01E255FF4FEB
:1007D000C591D491FC01EC55FF4FA591B4916111E5
:1007E00009C09FB7F8948881209582238883EC9173
:1007F0002E230BC0623061F49FB7F8948881322FAA
:10080000309583238883EC912E2B2C939FBF06C0B9
:100810008FB7F894E8812E2B28838FBFDF91CF917B
:1008200008951F93CF93DF93282F30E0F901E85903
:10083000FF4F8491F901E458FF4FD491F901E0573B
:10084000FF4FC491CC23C1F0162F81110E94AC033D
:10085000EC2FF0E0EE0FFF1FEC55FF4FA591B49188
:100860009FB7F894111104C08C91D095D82302C081
:10087000EC91DE2BDC939FBFDF91CF911F91089508
:100880000895A1E21A2EAA1BBB1BFD010DC0AA1FD1
:10089000BB1FEE1FFF1FA217B307E407F50720F0E9
:1008A000A21BB30BE40BF50B661F771F881F991F64
:1008B0001A9469F760957095809590959B01AC01AD
:1008C000BD01CF010895EE0FFF1F0590F491E02DBB
:0608D0000994F894FFCF2B
:1008D6000000000029018C02EA007601BC00D60067
:0208E600C80048
:00000001FF
